{
  "_format": "hh-sol-artifact-1",
  "contractName": "CardService",
  "sourceName": "contracts/CardService.sol",
  "abi": [
    {
      "anonymous": false,
      "inputs": [
        {
          "indexed": false,
          "internalType": "uint8",
          "name": "version",
          "type": "uint8"
        }
      ],
      "name": "Initialized",
      "type": "event"
    },
    {
      "anonymous": false,
      "inputs": [
        {
          "indexed": false,
          "internalType": "address",
          "name": "fromAddress",
          "type": "address"
        },
        {
          "indexed": false,
          "internalType": "uint256",
          "name": "value",
          "type": "uint256"
        }
      ],
      "name": "SendTransfer",
      "type": "event"
    },
    {
      "inputs": [],
      "name": "__CardService_init",
      "outputs": [],
      "stateMutability": "nonpayable",
      "type": "function"
    },
    {
      "inputs": [],
      "name": "getReceiver",
      "outputs": [
        {
          "internalType": "address",
          "name": "",
          "type": "address"
        }
      ],
      "stateMutability": "view",
      "type": "function"
    },
    {
      "inputs": [],
      "name": "send",
      "outputs": [],
      "stateMutability": "payable",
      "type": "function"
    },
    {
      "inputs": [
        {
          "internalType": "address payable",
          "name": "_receiver",
          "type": "address"
        }
      ],
      "name": "setReceiver",
      "outputs": [],
      "stateMutability": "nonpayable",
      "type": "function"
    }
  ],
  "bytecode": "0x608060405234801561001057600080fd5b506106f6806100206000396000f3fe60806040526004361061003f5760003560e01c806346a0cd0a14610044578063718da7ee1461005b57806398aca92214610084578063b46300ec146100af575b600080fd5b34801561005057600080fd5b506100596100b9565b005b34801561006757600080fd5b50610082600480360381019061007d9190610499565b610271565b005b34801561009057600080fd5b50610099610345565b6040516100a691906104e7565b60405180910390f35b6100b761036f565b005b60008060019054906101000a900460ff161590508080156100ea5750600160008054906101000a900460ff1660ff16105b8061011757506100f930610413565b1580156101165750600160008054906101000a900460ff1660ff16145b5b610156576040517f08c379a000000000000000000000000000000000000000000000000000000000815260040161014d90610585565b60405180910390fd5b60016000806101000a81548160ff021916908360ff1602179055508015610193576001600060016101000a81548160ff0219169083151502179055505b33600060026101000a81548173ffffffffffffffffffffffffffffffffffffffff021916908373ffffffffffffffffffffffffffffffffffffffff16021790555033600160006101000a81548173ffffffffffffffffffffffffffffffffffffffff021916908373ffffffffffffffffffffffffffffffffffffffff160217905550801561026e5760008060016101000a81548160ff0219169083151502179055507f7f26b83ff96e1f2b6a682f133852f6798a09c465da95921460cefb3847402498600160405161026591906105f7565b60405180910390a15b50565b600060029054906101000a900473ffffffffffffffffffffffffffffffffffffffff1673ffffffffffffffffffffffffffffffffffffffff163373ffffffffffffffffffffffffffffffffffffffff1614610301576040517f08c379a00000000000000000000000000000000000000000000000000000000081526004016102f89061065e565b60405180910390fd5b80600160006101000a81548173ffffffffffffffffffffffffffffffffffffffff021916908373ffffffffffffffffffffffffffffffffffffffff16021790555050565b6000600160009054906101000a900473ffffffffffffffffffffffffffffffffffffffff16905090565b7f91bea364280a4b8a0df2686e2124f5f45726a9a2e4039a34994e94410017132d33346040516103a0929190610697565b60405180910390a1600160009054906101000a900473ffffffffffffffffffffffffffffffffffffffff1673ffffffffffffffffffffffffffffffffffffffff166108fc349081150290604051600060405180830381858888f19350505050158015610410573d6000803e3d6000fd5b50565b6000808273ffffffffffffffffffffffffffffffffffffffff163b119050919050565b600080fd5b600073ffffffffffffffffffffffffffffffffffffffff82169050919050565b60006104668261043b565b9050919050565b6104768161045b565b811461048157600080fd5b50565b6000813590506104938161046d565b92915050565b6000602082840312156104af576104ae610436565b5b60006104bd84828501610484565b91505092915050565b60006104d18261043b565b9050919050565b6104e1816104c6565b82525050565b60006020820190506104fc60008301846104d8565b92915050565b600082825260208201905092915050565b7f496e697469616c697a61626c653a20636f6e747261637420697320616c72656160008201527f647920696e697469616c697a6564000000000000000000000000000000000000602082015250565b600061056f602e83610502565b915061057a82610513565b604082019050919050565b6000602082019050818103600083015261059e81610562565b9050919050565b6000819050919050565b600060ff82169050919050565b6000819050919050565b60006105e16105dc6105d7846105a5565b6105bc565b6105af565b9050919050565b6105f1816105c6565b82525050565b600060208201905061060c60008301846105e8565b92915050565b7f6d757374206265206f776e657200000000000000000000000000000000000000600082015250565b6000610648600d83610502565b915061065382610612565b602082019050919050565b600060208201905081810360008301526106778161063b565b9050919050565b6000819050919050565b6106918161067e565b82525050565b60006040820190506106ac60008301856104d8565b6106b96020830184610688565b939250505056fea26469706673582212205d775f81ed49acea8d9cd32618c1a77e962cb9983759f83928cdf72f8a8e60ba64736f6c63430008110033",
  "linkReferences": {},
  "deployedLinkReferences": {}
}