{
  "_format": "hh-sol-artifact-1",
  "contractName": "CardNFT",
  "sourceName": "contracts/CardNFT.sol",
  "abi": [
    {
      "inputs": [
        {
          "internalType": "string",
          "name": "_name",
          "type": "string"
        },
        {
          "internalType": "string",
          "name": "_symbol",
          "type": "string"
        }
      ],
      "stateMutability": "nonpayable",
      "type": "constructor"
    },
    {
      "anonymous": false,
      "inputs": [
        {
          "indexed": true,
          "internalType": "address",
          "name": "owner",
          "type": "address"
        },
        {
          "indexed": true,
          "internalType": "address",
          "name": "approved",
          "type": "address"
        },
        {
          "indexed": true,
          "internalType": "uint256",
          "name": "tokenId",
          "type": "uint256"
        }
      ],
      "name": "Approval",
      "type": "event"
    },
    {
      "anonymous": false,
      "inputs": [
        {
          "indexed": true,
          "internalType": "address",
          "name": "owner",
          "type": "address"
        },
        {
          "indexed": true,
          "internalType": "address",
          "name": "operator",
          "type": "address"
        },
        {
          "indexed": false,
          "internalType": "bool",
          "name": "approved",
          "type": "bool"
        }
      ],
      "name": "ApprovalForAll",
      "type": "event"
    },
    {
      "anonymous": false,
      "inputs": [
        {
          "indexed": false,
          "internalType": "address",
          "name": "fromAddress",
          "type": "address"
        },
        {
          "indexed": false,
          "internalType": "uint256",
          "name": "value",
          "type": "uint256"
        }
      ],
      "name": "SendFee",
      "type": "event"
    },
    {
      "anonymous": false,
      "inputs": [
        {
          "indexed": true,
          "internalType": "address",
          "name": "from",
          "type": "address"
        },
        {
          "indexed": true,
          "internalType": "address",
          "name": "to",
          "type": "address"
        },
        {
          "indexed": true,
          "internalType": "uint256",
          "name": "tokenId",
          "type": "uint256"
        }
      ],
      "name": "Transfer",
      "type": "event"
    },
    {
      "inputs": [
        {
          "internalType": "address",
          "name": "to",
          "type": "address"
        },
        {
          "internalType": "uint256",
          "name": "tokenId",
          "type": "uint256"
        }
      ],
      "name": "approve",
      "outputs": [],
      "stateMutability": "nonpayable",
      "type": "function"
    },
    {
      "inputs": [
        {
          "internalType": "address",
          "name": "owner",
          "type": "address"
        }
      ],
      "name": "balanceOf",
      "outputs": [
        {
          "internalType": "uint256",
          "name": "",
          "type": "uint256"
        }
      ],
      "stateMutability": "view",
      "type": "function"
    },
    {
      "inputs": [
        {
          "internalType": "uint256",
          "name": "tokenId",
          "type": "uint256"
        }
      ],
      "name": "getApproved",
      "outputs": [
        {
          "internalType": "address",
          "name": "",
          "type": "address"
        }
      ],
      "stateMutability": "view",
      "type": "function"
    },
    {
      "inputs": [],
      "name": "getFee",
      "outputs": [
        {
          "internalType": "uint256",
          "name": "",
          "type": "uint256"
        }
      ],
      "stateMutability": "view",
      "type": "function"
    },
    {
      "inputs": [],
      "name": "getReceiver",
      "outputs": [
        {
          "internalType": "address payable",
          "name": "",
          "type": "address"
        }
      ],
      "stateMutability": "view",
      "type": "function"
    },
    {
      "inputs": [
        {
          "internalType": "address",
          "name": "owner",
          "type": "address"
        },
        {
          "internalType": "address",
          "name": "operator",
          "type": "address"
        }
      ],
      "name": "isApprovedForAll",
      "outputs": [
        {
          "internalType": "bool",
          "name": "",
          "type": "bool"
        }
      ],
      "stateMutability": "view",
      "type": "function"
    },
    {
      "inputs": [
        {
          "internalType": "address",
          "name": "_to",
          "type": "address"
        },
        {
          "internalType": "uint256",
          "name": "_tokenId",
          "type": "uint256"
        },
        {
          "internalType": "string",
          "name": "_tokenURI",
          "type": "string"
        }
      ],
      "name": "mint",
      "outputs": [],
      "stateMutability": "payable",
      "type": "function"
    },
    {
      "inputs": [],
      "name": "name",
      "outputs": [
        {
          "internalType": "string",
          "name": "",
          "type": "string"
        }
      ],
      "stateMutability": "view",
      "type": "function"
    },
    {
      "inputs": [
        {
          "internalType": "uint256",
          "name": "tokenId",
          "type": "uint256"
        }
      ],
      "name": "ownerOf",
      "outputs": [
        {
          "internalType": "address",
          "name": "",
          "type": "address"
        }
      ],
      "stateMutability": "view",
      "type": "function"
    },
    {
      "inputs": [
        {
          "internalType": "address",
          "name": "from",
          "type": "address"
        },
        {
          "internalType": "address",
          "name": "to",
          "type": "address"
        },
        {
          "internalType": "uint256",
          "name": "tokenId",
          "type": "uint256"
        }
      ],
      "name": "safeTransferFrom",
      "outputs": [],
      "stateMutability": "nonpayable",
      "type": "function"
    },
    {
      "inputs": [
        {
          "internalType": "address",
          "name": "from",
          "type": "address"
        },
        {
          "internalType": "address",
          "name": "to",
          "type": "address"
        },
        {
          "internalType": "uint256",
          "name": "tokenId",
          "type": "uint256"
        },
        {
          "internalType": "bytes",
          "name": "data",
          "type": "bytes"
        }
      ],
      "name": "safeTransferFrom",
      "outputs": [],
      "stateMutability": "nonpayable",
      "type": "function"
    },
    {
      "inputs": [
        {
          "internalType": "address",
          "name": "operator",
          "type": "address"
        },
        {
          "internalType": "bool",
          "name": "approved",
          "type": "bool"
        }
      ],
      "name": "setApprovalForAll",
      "outputs": [],
      "stateMutability": "nonpayable",
      "type": "function"
    },
    {
      "inputs": [
        {
          "internalType": "uint256",
          "name": "_fee",
          "type": "uint256"
        }
      ],
      "name": "setFee",
      "outputs": [],
      "stateMutability": "nonpayable",
      "type": "function"
    },
    {
      "inputs": [
        {
          "internalType": "address payable",
          "name": "_receiver",
          "type": "address"
        }
      ],
      "name": "setReceiver",
      "outputs": [],
      "stateMutability": "nonpayable",
      "type": "function"
    },
    {
      "inputs": [
        {
          "internalType": "bytes4",
          "name": "interfaceId",
          "type": "bytes4"
        }
      ],
      "name": "supportsInterface",
      "outputs": [
        {
          "internalType": "bool",
          "name": "",
          "type": "bool"
        }
      ],
      "stateMutability": "view",
      "type": "function"
    },
    {
      "inputs": [],
      "name": "symbol",
      "outputs": [
        {
          "internalType": "string",
          "name": "",
          "type": "string"
        }
      ],
      "stateMutability": "view",
      "type": "function"
    },
    {
      "inputs": [
        {
          "internalType": "uint256",
          "name": "_tokenId",
          "type": "uint256"
        }
      ],
      "name": "tokenURI",
      "outputs": [
        {
          "internalType": "string",
          "name": "",
          "type": "string"
        }
      ],
      "stateMutability": "view",
      "type": "function"
    },
    {
      "inputs": [
        {
          "internalType": "address",
          "name": "from",
          "type": "address"
        },
        {
          "internalType": "address",
          "name": "to",
          "type": "address"
        },
        {
          "internalType": "uint256",
          "name": "tokenId",
          "type": "uint256"
        }
      ],
      "name": "transferFrom",
      "outputs": [],
      "stateMutability": "nonpayable",
      "type": "function"
    }
  ],
  "bytecode": "0x60806040523480156200001157600080fd5b50604051620031523803806200315283398181016040528101906200003791906200027c565b818181600090816200004a91906200054c565b5080600190816200005c91906200054c565b50505033600860006101000a81548173ffffffffffffffffffffffffffffffffffffffff021916908373ffffffffffffffffffffffffffffffffffffffff16021790555033600960006101000a81548173ffffffffffffffffffffffffffffffffffffffff021916908373ffffffffffffffffffffffffffffffffffffffff160217905550505062000633565b6000604051905090565b600080fd5b600080fd5b600080fd5b600080fd5b6000601f19601f8301169050919050565b7f4e487b7100000000000000000000000000000000000000000000000000000000600052604160045260246000fd5b620001528262000107565b810181811067ffffffffffffffff8211171562000174576200017362000118565b5b80604052505050565b600062000189620000e9565b905062000197828262000147565b919050565b600067ffffffffffffffff821115620001ba57620001b962000118565b5b620001c58262000107565b9050602081019050919050565b60005b83811015620001f2578082015181840152602081019050620001d5565b60008484015250505050565b6000620002156200020f846200019c565b6200017d565b90508281526020810184848401111562000234576200023362000102565b5b62000241848285620001d2565b509392505050565b600082601f830112620002615762000260620000fd565b5b815162000273848260208601620001fe565b91505092915050565b60008060408385031215620002965762000295620000f3565b5b600083015167ffffffffffffffff811115620002b757620002b6620000f8565b5b620002c58582860162000249565b925050602083015167ffffffffffffffff811115620002e957620002e8620000f8565b5b620002f78582860162000249565b9150509250929050565b600081519050919050565b7f4e487b7100000000000000000000000000000000000000000000000000000000600052602260045260246000fd5b600060028204905060018216806200035457607f821691505b6020821081036200036a57620003696200030c565b5b50919050565b60008190508160005260206000209050919050565b60006020601f8301049050919050565b600082821b905092915050565b600060088302620003d47fffffffffffffffffffffffffffffffffffffffffffffffffffffffffffffffff8262000395565b620003e0868362000395565b95508019841693508086168417925050509392505050565b6000819050919050565b6000819050919050565b60006200042d620004276200042184620003f8565b62000402565b620003f8565b9050919050565b6000819050919050565b62000449836200040c565b62000461620004588262000434565b848454620003a2565b825550505050565b600090565b6200047862000469565b620004858184846200043e565b505050565b5b81811015620004ad57620004a16000826200046e565b6001810190506200048b565b5050565b601f821115620004fc57620004c68162000370565b620004d18462000385565b81016020851015620004e1578190505b620004f9620004f08562000385565b8301826200048a565b50505b505050565b600082821c905092915050565b6000620005216000198460080262000501565b1980831691505092915050565b60006200053c83836200050e565b9150826002028217905092915050565b620005578262000301565b67ffffffffffffffff81111562000573576200057262000118565b5b6200057f82546200033b565b6200058c828285620004b1565b600060209050601f831160018114620005c45760008415620005af578287015190505b620005bb85826200052e565b8655506200062b565b601f198416620005d48662000370565b60005b82811015620005fe57848901518255600182019150602085019450602081019050620005d7565b868310156200061e57848901516200061a601f8916826200050e565b8355505b6001600288020188555050505b505050505050565b612b0f80620006436000396000f3fe6080604052600436106101095760003560e01c8063718da7ee11610095578063b88d4fde11610064578063b88d4fde14610379578063c87b56dd146103a2578063ced72f87146103df578063d3fc98641461040a578063e985e9c51461042657610109565b8063718da7ee146102d157806395d89b41146102fa57806398aca92214610325578063a22cb4651461035057610109565b806323b872dd116100dc57806323b872dd146101dc57806342842e0e146102055780636352211e1461022e57806369fe0e2d1461026b57806370a082311461029457610109565b806301ffc9a71461010e57806306fdde031461014b578063081812fc14610176578063095ea7b3146101b3575b600080fd5b34801561011a57600080fd5b5061013560048036038101906101309190611976565b610463565b60405161014291906119be565b60405180910390f35b34801561015757600080fd5b50610160610545565b60405161016d9190611a69565b60405180910390f35b34801561018257600080fd5b5061019d60048036038101906101989190611ac1565b6105d7565b6040516101aa9190611b2f565b60405180910390f35b3480156101bf57600080fd5b506101da60048036038101906101d59190611b76565b61061d565b005b3480156101e857600080fd5b5061020360048036038101906101fe9190611bb6565b610734565b005b34801561021157600080fd5b5061022c60048036038101906102279190611bb6565b610794565b005b34801561023a57600080fd5b5061025560048036038101906102509190611ac1565b6107b4565b6040516102629190611b2f565b60405180910390f35b34801561027757600080fd5b50610292600480360381019061028d9190611ac1565b61083a565b005b3480156102a057600080fd5b506102bb60048036038101906102b69190611c09565b6108d4565b6040516102c89190611c45565b60405180910390f35b3480156102dd57600080fd5b506102f860048036038101906102f39190611c9e565b61098b565b005b34801561030657600080fd5b5061030f610a5f565b60405161031c9190611a69565b60405180910390f35b34801561033157600080fd5b5061033a610af1565b6040516103479190611cda565b60405180910390f35b34801561035c57600080fd5b5061037760048036038101906103729190611d21565b610b1b565b005b34801561038557600080fd5b506103a0600480360381019061039b9190611e96565b610b31565b005b3480156103ae57600080fd5b506103c960048036038101906103c49190611ac1565b610b93565b6040516103d69190611a69565b60405180910390f35b3480156103eb57600080fd5b506103f4610c38565b6040516104019190611c45565b60405180910390f35b610424600480360381019061041f9190611fba565b610c42565b005b34801561043257600080fd5b5061044d60048036038101906104489190612029565b610d59565b60405161045a91906119be565b60405180910390f35b60007f80ac58cd000000000000000000000000000000000000000000000000000000007bffffffffffffffffffffffffffffffffffffffffffffffffffffffff1916827bffffffffffffffffffffffffffffffffffffffffffffffffffffffff1916148061052e57507f5b5e139f000000000000000000000000000000000000000000000000000000007bffffffffffffffffffffffffffffffffffffffffffffffffffffffff1916827bffffffffffffffffffffffffffffffffffffffffffffffffffffffff1916145b8061053e575061053d82610ded565b5b9050919050565b60606000805461055490612098565b80601f016020809104026020016040519081016040528092919081815260200182805461058090612098565b80156105cd5780601f106105a2576101008083540402835291602001916105cd565b820191906000526020600020905b8154815290600101906020018083116105b057829003601f168201915b5050505050905090565b60006105e282610e57565b6004600083815260200190815260200160002060009054906101000a900473ffffffffffffffffffffffffffffffffffffffff169050919050565b6000610628826107b4565b90508073ffffffffffffffffffffffffffffffffffffffff168373ffffffffffffffffffffffffffffffffffffffff1603610698576040517f08c379a000000000000000000000000000000000000000000000000000000000815260040161068f9061213b565b60405180910390fd5b8073ffffffffffffffffffffffffffffffffffffffff166106b7610ea2565b73ffffffffffffffffffffffffffffffffffffffff1614806106e657506106e5816106e0610ea2565b610d59565b5b610725576040517f08c379a000000000000000000000000000000000000000000000000000000000815260040161071c906121cd565b60405180910390fd5b61072f8383610eaa565b505050565b61074561073f610ea2565b82610f63565b610784576040517f08c379a000000000000000000000000000000000000000000000000000000000815260040161077b9061225f565b60405180910390fd5b61078f838383610ff8565b505050565b6107af83838360405180602001604052806000815250610b31565b505050565b6000806107c0836112f1565b9050600073ffffffffffffffffffffffffffffffffffffffff168173ffffffffffffffffffffffffffffffffffffffff1603610831576040517f08c379a0000000000000000000000000000000000000000000000000000000008152600401610828906122cb565b60405180910390fd5b80915050919050565b600860009054906101000a900473ffffffffffffffffffffffffffffffffffffffff1673ffffffffffffffffffffffffffffffffffffffff163373ffffffffffffffffffffffffffffffffffffffff16146108ca576040517f08c379a00000000000000000000000000000000000000000000000000000000081526004016108c190612337565b60405180910390fd5b8060078190555050565b60008073ffffffffffffffffffffffffffffffffffffffff168273ffffffffffffffffffffffffffffffffffffffff1603610944576040517f08c379a000000000000000000000000000000000000000000000000000000000815260040161093b906123c9565b60405180910390fd5b600360008373ffffffffffffffffffffffffffffffffffffffff1673ffffffffffffffffffffffffffffffffffffffff168152602001908152602001600020549050919050565b600860009054906101000a900473ffffffffffffffffffffffffffffffffffffffff1673ffffffffffffffffffffffffffffffffffffffff163373ffffffffffffffffffffffffffffffffffffffff1614610a1b576040517f08c379a0000000000000000000000000000000000000000000000000000000008152600401610a1290612337565b60405180910390fd5b80600960006101000a81548173ffffffffffffffffffffffffffffffffffffffff021916908373ffffffffffffffffffffffffffffffffffffffff16021790555050565b606060018054610a6e90612098565b80601f0160208091040260200160405190810160405280929190818152602001828054610a9a90612098565b8015610ae75780601f10610abc57610100808354040283529160200191610ae7565b820191906000526020600020905b815481529060010190602001808311610aca57829003601f168201915b5050505050905090565b6000600960009054906101000a900473ffffffffffffffffffffffffffffffffffffffff16905090565b610b2d610b26610ea2565b838361132e565b5050565b610b42610b3c610ea2565b83610f63565b610b81576040517f08c379a0000000000000000000000000000000000000000000000000000000008152600401610b789061225f565b60405180910390fd5b610b8d8484848461149a565b50505050565b6060600660008381526020019081526020016000208054610bb390612098565b80601f0160208091040260200160405190810160405280929190818152602001828054610bdf90612098565b8015610c2c5780601f10610c0157610100808354040283529160200191610c2c565b820191906000526020600020905b815481529060010190602001808311610c0f57829003601f168201915b50505050509050919050565b6000600754905090565b600754341015610c87576040517f08c379a0000000000000000000000000000000000000000000000000000000008152600401610c7e90612435565b60405180910390fd5b600960009054906101000a900473ffffffffffffffffffffffffffffffffffffffff1673ffffffffffffffffffffffffffffffffffffffff166108fc349081150290604051600060405180830381858888f19350505050158015610cef573d6000803e3d6000fd5b50610cfa83836114f6565b80600660008481526020019081526020016000209081610d1a9190612601565b507fd72bfa2a34a48ab4da0b3bbee8a75b469a506077466de5f3006cf251561161433334604051610d4c9291906126d3565b60405180910390a1505050565b6000600560008473ffffffffffffffffffffffffffffffffffffffff1673ffffffffffffffffffffffffffffffffffffffff16815260200190815260200160002060008373ffffffffffffffffffffffffffffffffffffffff1673ffffffffffffffffffffffffffffffffffffffff16815260200190815260200160002060009054906101000a900460ff16905092915050565b60007f01ffc9a7000000000000000000000000000000000000000000000000000000007bffffffffffffffffffffffffffffffffffffffffffffffffffffffff1916827bffffffffffffffffffffffffffffffffffffffffffffffffffffffff1916149050919050565b610e6081611713565b610e9f576040517f08c379a0000000000000000000000000000000000000000000000000000000008152600401610e96906122cb565b60405180910390fd5b50565b600033905090565b816004600083815260200190815260200160002060006101000a81548173ffffffffffffffffffffffffffffffffffffffff021916908373ffffffffffffffffffffffffffffffffffffffff160217905550808273ffffffffffffffffffffffffffffffffffffffff16610f1d836107b4565b73ffffffffffffffffffffffffffffffffffffffff167f8c5be1e5ebec7d5bd14f71427d1e84f3dd0314c0f7b2291e5b200ac8c7c3b92560405160405180910390a45050565b600080610f6f836107b4565b90508073ffffffffffffffffffffffffffffffffffffffff168473ffffffffffffffffffffffffffffffffffffffff161480610fb15750610fb08185610d59565b5b80610fef57508373ffffffffffffffffffffffffffffffffffffffff16610fd7846105d7565b73ffffffffffffffffffffffffffffffffffffffff16145b91505092915050565b8273ffffffffffffffffffffffffffffffffffffffff16611018826107b4565b73ffffffffffffffffffffffffffffffffffffffff161461106e576040517f08c379a00000000000000000000000000000000000000000000000000000000081526004016110659061276e565b60405180910390fd5b600073ffffffffffffffffffffffffffffffffffffffff168273ffffffffffffffffffffffffffffffffffffffff16036110dd576040517f08c379a00000000000000000000000000000000000000000000000000000000081526004016110d490612800565b60405180910390fd5b6110ea8383836001611754565b8273ffffffffffffffffffffffffffffffffffffffff1661110a826107b4565b73ffffffffffffffffffffffffffffffffffffffff1614611160576040517f08c379a00000000000000000000000000000000000000000000000000000000081526004016111579061276e565b60405180910390fd5b6004600082815260200190815260200160002060006101000a81549073ffffffffffffffffffffffffffffffffffffffff02191690556001600360008573ffffffffffffffffffffffffffffffffffffffff1673ffffffffffffffffffffffffffffffffffffffff168152602001908152602001600020600082825403925050819055506001600360008473ffffffffffffffffffffffffffffffffffffffff1673ffffffffffffffffffffffffffffffffffffffff16815260200190815260200160002060008282540192505081905550816002600083815260200190815260200160002060006101000a81548173ffffffffffffffffffffffffffffffffffffffff021916908373ffffffffffffffffffffffffffffffffffffffff160217905550808273ffffffffffffffffffffffffffffffffffffffff168473ffffffffffffffffffffffffffffffffffffffff167fddf252ad1be2c89b69c2b068fc378daa952ba7f163c4a11628f55a4df523b3ef60405160405180910390a46112ec838383600161175a565b505050565b60006002600083815260200190815260200160002060009054906101000a900473ffffffffffffffffffffffffffffffffffffffff169050919050565b8173ffffffffffffffffffffffffffffffffffffffff168373ffffffffffffffffffffffffffffffffffffffff160361139c576040517f08c379a00000000000000000000000000000000000000000000000000000000081526004016113939061286c565b60405180910390fd5b80600560008573ffffffffffffffffffffffffffffffffffffffff1673ffffffffffffffffffffffffffffffffffffffff16815260200190815260200160002060008473ffffffffffffffffffffffffffffffffffffffff1673ffffffffffffffffffffffffffffffffffffffff16815260200190815260200160002060006101000a81548160ff0219169083151502179055508173ffffffffffffffffffffffffffffffffffffffff168373ffffffffffffffffffffffffffffffffffffffff167f17307eab39ab6107e8899845ad3d59bd9653f200f220920489ca2b5937696c318360405161148d91906119be565b60405180910390a3505050565b6114a5848484610ff8565b6114b184848484611760565b6114f0576040517f08c379a00000000000000000000000000000000000000000000000000000000081526004016114e7906128fe565b60405180910390fd5b50505050565b600073ffffffffffffffffffffffffffffffffffffffff168273ffffffffffffffffffffffffffffffffffffffff1603611565576040517f08c379a000000000000000000000000000000000000000000000000000000000815260040161155c9061296a565b60405180910390fd5b61156e81611713565b156115ae576040517f08c379a00000000000000000000000000000000000000000000000000000000081526004016115a5906129d6565b60405180910390fd5b6115bc600083836001611754565b6115c581611713565b15611605576040517f08c379a00000000000000000000000000000000000000000000000000000000081526004016115fc906129d6565b60405180910390fd5b6001600360008473ffffffffffffffffffffffffffffffffffffffff1673ffffffffffffffffffffffffffffffffffffffff16815260200190815260200160002060008282540192505081905550816002600083815260200190815260200160002060006101000a81548173ffffffffffffffffffffffffffffffffffffffff021916908373ffffffffffffffffffffffffffffffffffffffff160217905550808273ffffffffffffffffffffffffffffffffffffffff16600073ffffffffffffffffffffffffffffffffffffffff167fddf252ad1be2c89b69c2b068fc378daa952ba7f163c4a11628f55a4df523b3ef60405160405180910390a461170f60008383600161175a565b5050565b60008073ffffffffffffffffffffffffffffffffffffffff16611735836112f1565b73ffffffffffffffffffffffffffffffffffffffff1614159050919050565b50505050565b50505050565b60006117818473ffffffffffffffffffffffffffffffffffffffff166118e7565b156118da578373ffffffffffffffffffffffffffffffffffffffff1663150b7a026117aa610ea2565b8786866040518563ffffffff1660e01b81526004016117cc9493929190612a4b565b6020604051808303816000875af192505050801561180857506040513d601f19601f820116820180604052508101906118059190612aac565b60015b61188a573d8060008114611838576040519150601f19603f3d011682016040523d82523d6000602084013e61183d565b606091505b506000815103611882576040517f08c379a0000000000000000000000000000000000000000000000000000000008152600401611879906128fe565b60405180910390fd5b805181602001fd5b63150b7a0260e01b7bffffffffffffffffffffffffffffffffffffffffffffffffffffffff1916817bffffffffffffffffffffffffffffffffffffffffffffffffffffffff1916149150506118df565b600190505b949350505050565b6000808273ffffffffffffffffffffffffffffffffffffffff163b119050919050565b6000604051905090565b600080fd5b600080fd5b60007fffffffff0000000000000000000000000000000000000000000000000000000082169050919050565b6119538161191e565b811461195e57600080fd5b50565b6000813590506119708161194a565b92915050565b60006020828403121561198c5761198b611914565b5b600061199a84828501611961565b91505092915050565b60008115159050919050565b6119b8816119a3565b82525050565b60006020820190506119d360008301846119af565b92915050565b600081519050919050565b600082825260208201905092915050565b60005b83811015611a135780820151818401526020810190506119f8565b60008484015250505050565b6000601f19601f8301169050919050565b6000611a3b826119d9565b611a4581856119e4565b9350611a558185602086016119f5565b611a5e81611a1f565b840191505092915050565b60006020820190508181036000830152611a838184611a30565b905092915050565b6000819050919050565b611a9e81611a8b565b8114611aa957600080fd5b50565b600081359050611abb81611a95565b92915050565b600060208284031215611ad757611ad6611914565b5b6000611ae584828501611aac565b91505092915050565b600073ffffffffffffffffffffffffffffffffffffffff82169050919050565b6000611b1982611aee565b9050919050565b611b2981611b0e565b82525050565b6000602082019050611b446000830184611b20565b92915050565b611b5381611b0e565b8114611b5e57600080fd5b50565b600081359050611b7081611b4a565b92915050565b60008060408385031215611b8d57611b8c611914565b5b6000611b9b85828601611b61565b9250506020611bac85828601611aac565b9150509250929050565b600080600060608486031215611bcf57611bce611914565b5b6000611bdd86828701611b61565b9350506020611bee86828701611b61565b9250506040611bff86828701611aac565b9150509250925092565b600060208284031215611c1f57611c1e611914565b5b6000611c2d84828501611b61565b91505092915050565b611c3f81611a8b565b82525050565b6000602082019050611c5a6000830184611c36565b92915050565b6000611c6b82611aee565b9050919050565b611c7b81611c60565b8114611c8657600080fd5b50565b600081359050611c9881611c72565b92915050565b600060208284031215611cb457611cb3611914565b5b6000611cc284828501611c89565b91505092915050565b611cd481611c60565b82525050565b6000602082019050611cef6000830184611ccb565b92915050565b611cfe816119a3565b8114611d0957600080fd5b50565b600081359050611d1b81611cf5565b92915050565b60008060408385031215611d3857611d37611914565b5b6000611d4685828601611b61565b9250506020611d5785828601611d0c565b9150509250929050565b600080fd5b600080fd5b7f4e487b7100000000000000000000000000000000000000000000000000000000600052604160045260246000fd5b611da382611a1f565b810181811067ffffffffffffffff82111715611dc257611dc1611d6b565b5b80604052505050565b6000611dd561190a565b9050611de18282611d9a565b919050565b600067ffffffffffffffff821115611e0157611e00611d6b565b5b611e0a82611a1f565b9050602081019050919050565b82818337600083830152505050565b6000611e39611e3484611de6565b611dcb565b905082815260208101848484011115611e5557611e54611d66565b5b611e60848285611e17565b509392505050565b600082601f830112611e7d57611e7c611d61565b5b8135611e8d848260208601611e26565b91505092915050565b60008060008060808587031215611eb057611eaf611914565b5b6000611ebe87828801611b61565b9450506020611ecf87828801611b61565b9350506040611ee087828801611aac565b925050606085013567ffffffffffffffff811115611f0157611f00611919565b5b611f0d87828801611e68565b91505092959194509250565b600067ffffffffffffffff821115611f3457611f33611d6b565b5b611f3d82611a1f565b9050602081019050919050565b6000611f5d611f5884611f19565b611dcb565b905082815260208101848484011115611f7957611f78611d66565b5b611f84848285611e17565b509392505050565b600082601f830112611fa157611fa0611d61565b5b8135611fb1848260208601611f4a565b91505092915050565b600080600060608486031215611fd357611fd2611914565b5b6000611fe186828701611b61565b9350506020611ff286828701611aac565b925050604084013567ffffffffffffffff81111561201357612012611919565b5b61201f86828701611f8c565b9150509250925092565b600080604083850312156120405761203f611914565b5b600061204e85828601611b61565b925050602061205f85828601611b61565b9150509250929050565b7f4e487b7100000000000000000000000000000000000000000000000000000000600052602260045260246000fd5b600060028204905060018216806120b057607f821691505b6020821081036120c3576120c2612069565b5b50919050565b7f4552433732313a20617070726f76616c20746f2063757272656e74206f776e6560008201527f7200000000000000000000000000000000000000000000000000000000000000602082015250565b60006121256021836119e4565b9150612130826120c9565b604082019050919050565b6000602082019050818103600083015261215481612118565b9050919050565b7f4552433732313a20617070726f76652063616c6c6572206973206e6f7420746f60008201527f6b656e206f776e6572206f7220617070726f76656420666f7220616c6c000000602082015250565b60006121b7603d836119e4565b91506121c28261215b565b604082019050919050565b600060208201905081810360008301526121e6816121aa565b9050919050565b7f4552433732313a2063616c6c6572206973206e6f7420746f6b656e206f776e6560008201527f72206f7220617070726f76656400000000000000000000000000000000000000602082015250565b6000612249602d836119e4565b9150612254826121ed565b604082019050919050565b600060208201905081810360008301526122788161223c565b9050919050565b7f4552433732313a20696e76616c696420746f6b656e2049440000000000000000600082015250565b60006122b56018836119e4565b91506122c08261227f565b602082019050919050565b600060208201905081810360008301526122e4816122a8565b9050919050565b7f6d757374206265206f776e657200000000000000000000000000000000000000600082015250565b6000612321600d836119e4565b915061232c826122eb565b602082019050919050565b6000602082019050818103600083015261235081612314565b9050919050565b7f4552433732313a2061646472657373207a65726f206973206e6f74206120766160008201527f6c6964206f776e65720000000000000000000000000000000000000000000000602082015250565b60006123b36029836119e4565b91506123be82612357565b604082019050919050565b600060208201905081810360008301526123e2816123a6565b9050919050565b7f666565206973206e6f7420656e6f756768000000000000000000000000000000600082015250565b600061241f6011836119e4565b915061242a826123e9565b602082019050919050565b6000602082019050818103600083015261244e81612412565b9050919050565b60008190508160005260206000209050919050565b60006020601f8301049050919050565b600082821b905092915050565b6000600883026124b77fffffffffffffffffffffffffffffffffffffffffffffffffffffffffffffffff8261247a565b6124c1868361247a565b95508019841693508086168417925050509392505050565b6000819050919050565b60006124fe6124f96124f484611a8b565b6124d9565b611a8b565b9050919050565b6000819050919050565b612518836124e3565b61252c61252482612505565b848454612487565b825550505050565b600090565b612541612534565b61254c81848461250f565b505050565b5b8181101561257057612565600082612539565b600181019050612552565b5050565b601f8211156125b55761258681612455565b61258f8461246a565b8101602085101561259e578190505b6125b26125aa8561246a565b830182612551565b50505b505050565b600082821c905092915050565b60006125d8600019846008026125ba565b1980831691505092915050565b60006125f183836125c7565b9150826002028217905092915050565b61260a826119d9565b67ffffffffffffffff81111561262357612622611d6b565b5b61262d8254612098565b612638828285612574565b600060209050601f83116001811461266b5760008415612659578287015190505b61266385826125e5565b8655506126cb565b601f19841661267986612455565b60005b828110156126a15784890151825560018201915060208501945060208101905061267c565b868310156126be57848901516126ba601f8916826125c7565b8355505b6001600288020188555050505b505050505050565b60006040820190506126e86000830185611b20565b6126f56020830184611c36565b9392505050565b7f4552433732313a207472616e736665722066726f6d20696e636f72726563742060008201527f6f776e6572000000000000000000000000000000000000000000000000000000602082015250565b60006127586025836119e4565b9150612763826126fc565b604082019050919050565b600060208201905081810360008301526127878161274b565b9050919050565b7f4552433732313a207472616e7366657220746f20746865207a65726f2061646460008201527f7265737300000000000000000000000000000000000000000000000000000000602082015250565b60006127ea6024836119e4565b91506127f58261278e565b604082019050919050565b60006020820190508181036000830152612819816127dd565b9050919050565b7f4552433732313a20617070726f766520746f2063616c6c657200000000000000600082015250565b60006128566019836119e4565b915061286182612820565b602082019050919050565b6000602082019050818103600083015261288581612849565b9050919050565b7f4552433732313a207472616e7366657220746f206e6f6e20455243373231526560008201527f63656976657220696d706c656d656e7465720000000000000000000000000000602082015250565b60006128e86032836119e4565b91506128f38261288c565b604082019050919050565b60006020820190508181036000830152612917816128db565b9050919050565b7f4552433732313a206d696e7420746f20746865207a65726f2061646472657373600082015250565b60006129546020836119e4565b915061295f8261291e565b602082019050919050565b6000602082019050818103600083015261298381612947565b9050919050565b7f4552433732313a20746f6b656e20616c7265616479206d696e74656400000000600082015250565b60006129c0601c836119e4565b91506129cb8261298a565b602082019050919050565b600060208201905081810360008301526129ef816129b3565b9050919050565b600081519050919050565b600082825260208201905092915050565b6000612a1d826129f6565b612a278185612a01565b9350612a378185602086016119f5565b612a4081611a1f565b840191505092915050565b6000608082019050612a606000830187611b20565b612a6d6020830186611b20565b612a7a6040830185611c36565b8181036060830152612a8c8184612a12565b905095945050505050565b600081519050612aa68161194a565b92915050565b600060208284031215612ac257612ac1611914565b5b6000612ad084828501612a97565b9150509291505056fea26469706673582212202a55b7c441f3e39b69eba2072f1096f450af78bf1dc8f0e47f45f311a40cad1c64736f6c63430008110033",
  "linkReferences": {},
  "deployedLinkReferences": {}
}